:100000000C9434000C943E000C943E000C943E0082
:100010000C943E000C943E000C943E000C943E0068
:100020000C943E000C943E000C943E000C943E0058
:100030000C943E000C943E000C943E000C943E0048
:100040000C943E000C943E000C943E000C943E0038
:100050000C943E000C943E000C943E000C943E0028
:100060000C943E000C943E0011241FBECFEFD8E04C
:10007000DEBFCDBF0E94C7000C94C2010C940000EB
:10008000CF93DF93EC010E94B701FE01AE015395BF
:1000900090EE9F01205E3F4F908311821282138267
:1000A0003496E217F307C1F7F9014217530789F7AE
:1000B000DF91CF910895EF920F93E42FF0E038E0B5
:1000C000639FE00DF11D1124EE0FFF1FEE0FFF1FC8
:1000D000E80FF91FE182028323830F91EF900895C7
:1000E00050E038E0639F400D511D1124440F551F0F
:1000F000440F551F840F951F2052FC012083089543
:10010000AF92BF92CF92DF92EF92FF920F931F9325
:10011000CF93DF935C0180E00E94BD0180E00E94EC
:10012000BD0180E00E94BD0180E00E94BD0165012B
:10013000B3947601D8E08701C4E0F80181918F0182
:100140000E94BD01C150C9F7D150F4E0EF0EF11C7F
:10015000D111F1CF80E2C80ED11CAC14BD0449F717
:1001600080E00E94BD0180E00E94BD0180E00E940D
:10017000BD0180E00E94BD01DF91CF911F910F91E1
:10018000FF90EF90DF90CF90BF90AF900895CF9306
:10019000DF93CDB7DEB7DA950FB6F894DEBF0FBEAA
:1001A000CDBFCE0101960E944000CE0101960E9473
:1001B0008000CE0101965C01D82EFB2CC12C10E0F2
:1001C000E12C00E02FEF412F6C2DC5010E945B0058
:1001D0001F5F1830A9F7C39498E0C912F0CF0F2E13
:1001E000F3E0CF2EF02D10E0EE24EA940FEF2FEF86
:1001F000412F6C2DC5010E945B002FEF4C2D612F0C
:10020000C5010E945B001F5F183071F7C39485E041
:10021000C812E9CF0F2EF6E1EF2EF02D00E010E02E
:100220002E2D412F602F8D2D9F2D0E9470001F5F5E
:100230001830B1F70F5F083091F7C5010E948000B8
:100240008FE39CE90197F1F700C00000E3949FE180
:10025000E912E4CF0F2EFFE1EF2EF02D00E010E0C9
:100260002E2D412F602F8D2D9F2D0E9470001F5F1E
:100270001830B1F70F5F083091F7C5010E94800078
:100280008FE39CE90197F1F700C00000EA9496E142
:10029000E912E4CFC12C10E0EE24EA9400E020E063
:1002A000412F6C2DC5010E945B001F5F1830A1F724
:1002B000C39488E0C812EFCF0F2EF3E0CF2EF02DBD
:1002C00010E0E12C0FEF2FEF412F6C2DC5010E94A4
:1002D0005B002FEF4C2D612FC5010E945B001F5F5B
:1002E000183079F7C39495E0C912EACF0F2EF6E1E2
:1002F000EF2EF02D00E010E02E2D412F602F8D2DE0
:100300009F2D0E9470001F5F1830B1F70F5F0830FB
:1003100091F7C5010E9480008FE39CE90197F1F7F6
:1003200000C00000E3949FE1E912E4CF0F2EFFE14B
:10033000EF2EF02D00E010E02E2D412F602F8D2D9F
:100340009F2D0E9470001F5F1830B1F70F5F0830BB
:1003500091F7C5010E9480008FE39CE90197F1F7B6
:1003600000C00000EA9496E1E912E4CF27CF84B1FF
:100370008C6284B981E58CBD08958EBD0DB407FEF5
:08038000FDCF0895F894FFCFB2
:00000001FF
