S01A00006170613130325F64656D6F5F6D61747269782E737265634D
S11300000C9434000C943E000C943E000C943E007E
S11300100C943E000C943E000C943E000C943E0064
S11300200C943E000C943E000C943E000C943E0054
S11300300C943E000C943E000C943E000C943E0044
S11300400C943E000C943E000C943E000C943E0034
S11300500C943E000C943E000C943E000C943E0024
S11300600C943E000C943E0011241FBECFEFD8E048
S1130070DEBFCDBF0E94C7000C94C7010C940000E2
S1130080CF93DF93EC010E94BC01FE01AE015395B6
S113009090EE9F01205E3F4F908311821282138263
S11300A03496E217F307C1F7F9014217530789F7AA
S11300B0DF91CF910895EF920F93E42FF0E038E0B1
S11300C0639FE00DF11D1124EE0FFF1FEE0FFF1FC4
S11300D0E80FF91FE182028323830F91EF900895C3
S11300E050E038E0639F400D511D1124440F551F0B
S11300F0440F551F840F951F2052FC01208308953F
S1130100AF92BF92CF92DF92EF92FF920F931F9321
S1130110CF93DF935C0180E00E94C20180E00E94E3
S1130120C20180E00E94C20180E00E94C201650118
S1130130B3947601D8E08701C4E0F80181918F017E
S11301400E94C201C150C9F7D150F4E0EF0EF11C76
S1130150D111F1CF80E2C80ED11CAC14BD0449F713
S113016080E00E94C20180E00E94C20180E00E94FF
S1130170C20180E00E94C201DF91CF911F910F91D3
S1130180FF90EF90DF90CF90BF90AF900895CF9302
S1130190DF93CDB7DEB7DA950FB6F894DEBF0FBEA6
S11301A0CDBFCE0101960E944000CE0101960E946F
S11301B08000CE0101965C01D82EFB2CC12C10E0EE
S11301C0E12C00E02FEF412F6C2DC5010E945B0054
S11301D01F5F1830A9F7C39498E0C912F0CF0F2E0F
S11301E0F3E0CF2EF02D10E00F2EF4E6EF2EF02DDD
S11301F004E624E6412F6C2DC5010E945B0024E631
S11302004C2D612FC5010E945B001F5F183061F700
S1130210C39425E0C212E7CFE12C00E010E02E2DBC
S1130220412F602F8D2D9F2D0E9470001F5F18306D
S1130230B1F70F5F083091F7C5010E9480008FE786
S113024098E321E0815090402040E1F700C0000095
S1130250E3948FE0E812E1CF0F2EFEE0EF2EF02DB5
S113026000E010E02E2D412F602F8D2D9F2D0E9438
S113027070001F5F1830B1F70F5F083091F7C501A8
S11302800E9480009FE728E381E091502040804055
S1130290E1F700C00000EA94E110E2CFC12C10E0C5
S11302A0EE24EA9400E020E0412F6C2DC5010E9469
S11302B05B001F5F1830A1F7C39498E0C912EFCF19
S11302C00F2EF3E0CF2EF02D10E0E12C08EC28ECFB
S11302D0412F6C2DC5010E945B0028EC4C2D612F31
S11302E0C5010E945B001F5F183079F7C39425E0B5
S11302F0C212EACF00E010E02E2D412F602F8D2D89
S11303009F2D0E9470001F5F1830B1F70F5F0830F7
S113031091F7C5010E9480008FE798E321E08150A6
S113032090402040E1F700C00000E3948FE0E81221
S1130330E1CF0F2EFEE0EF2EF02D00E010E02E2D89
S1130340412F602F8D2D9F2D0E9470001F5F18304C
S1130350B1F70F5F083091F7C5010E9480009FE755
S113036028E381E0915020408040E1F700C0000084
S1130370EA94E110E2CF22CF84B18C6284B981E5A2
S11303808CBD08958EBD0DB407FEFDCF0895F8947D
S1050390FFCF99
S9030000FC
