:100000000C9434000C943E000C943E000C943E0082
:100010000C943E000C943E000C943E000C943E0068
:100020000C943E000C943E000C943E000C943E0058
:100030000C943E000C943E000C943E000C943E0048
:100040000C943E000C943E000C943E000C943E0038
:100050000C943E000C943E000C943E000C943E0028
:100060000C943E000C943E0011241FBECFEFD8E04C
:10007000DEBFCDBF0E94A1000C94AB010C94000028
:10008000CF93DF93EC010E94A001FE01CE018051CD
:100090009F4F20EE20831182128213823496E8173C
:1000A000F907C1F7DF91CF910895EF920F93FC010B
:1000B00034E0639FE00DF11D112480EE8E0D8083EE
:1000C0000183228343830F91EF900895CF92DF92B3
:1000D000EF92FF920F931F93CF936C0180E00E94E9
:1000E000A60180E00E94A60180E00E94A60180E0B7
:1000F0000E94A601760180EFC80ED11C8701C4E0E2
:10010000F80181918F010E94A601C150C9F7F4E066
:10011000EF0EF11CEC14FD0489F780E00E94A601AB
:1001200080E00E94A60180E00E94A60180E00E947B
:10013000A601CF911F910F91FF90EF90DF90CF908C
:100140000895CF93DF93CDB7DEB7C05FD1090FB667
:10015000F894DEBF0FBECDBFCE0101960E944000D5
:10016000CE0101960E9466000F2EF5E0FF2EF02DC5
:1001700010E00F2EFFE1EF2EF02D00E020E04FEF1A
:10018000612FCE0101960E94550061E0610F2FEFB3
:1001900040E0CE0101960E94550062E0610F0FEF32
:1001A00020E040E0CE0101960E9455001D5F123113
:1001B00001F7CE0101960E9466002FEF89EF90E0D3
:1001C000215080409040E1F700C0000010E00F2E69
:1001D000FFE1EF2EF02D00E020E040E0612FCE01A6
:1001E00001960E94550061E0610F20E040E0CE01E1
:1001F00001960E94550062E0610F20E040E0CE01D0
:1002000001960E9455001D5F123109F7CE0101963B
:100210000E9466002FEF89EF90E0215080409040CF
:10022000E1F700C00000FA94F110A2CF0F2EF7E022
:10023000FF2EF02D10E00F2EFFE1EF2EF02D00E04D
:1002400020E04FEF612FCE0101960E94550061E042
:10025000610F2FEF40E0CE0101960E94550062E051
:10026000610F0FEF20E040E0CE0101960E945500A3
:100270001D5F123101F7CE0101960E9466008FE3E7
:100280009CE90197F1F700C0000010E00F2EFFE19C
:10029000EF2EF02D0FEF20E040E0612FCE01019610
:1002A0000E94550061E0610F00E020E04FEFCE01B9
:1002B00001960E94550062E0610F2FEF40E0CE01F1
:1002C00001960E9455001D5F123101F7CE01019683
:1002D0000E9466008FE39CE90197F1F700C00000DF
:1002E00010E00F2EFFE1EF2EF02D00E02FEF40E0A9
:1002F000612FCE0101960E94550061E0610F0FEF62
:1003000020E040E0CE0101960E94550062E0610FBE
:1003100000E020E04FEFCE0101960E9455001D5FE6
:100320001231F9F6CE0101960E9466008FE39CE936
:100330000197F1F700C00000FA94F1107BCF14CFC1
:1003400084B18C6284B981E58CBD08958EBD0DB4F5
:0A03500007FEFDCF0895F894FFCFDB
:00000001FF
