S01B00006170613130325F64656D6F5F6C65645F73696D2E7372656304
S11300000C9434000C943E000C943E000C943E007E
S11300100C943E000C943E000C943E000C943E0064
S11300200C943E000C943E000C943E000C943E0054
S11300300C943E000C943E000C943E000C943E0044
S11300400C943E000C943E000C943E000C943E0034
S11300500C943E000C943E000C943E000C943E0024
S11300600C943E000C943E0011241FBECFEFD8E048
S1130070DEBFCDBF0E9478000C94D1000C94000028
S113008061110E94C60008950F93FC0161834283AD
S11300902383005204830F910895CF93DF93EC01DF
S11300A080E00E94CC0080E00E94CC0080E00E94AE
S11300B0CC0080E00E94CC008C8180520E94CC0055
S11300C08B810E94CC008A810E94CC0089810E948D
S11300D0CC0080E00E94CC0080E00E94CC0080E054
S11300E00E94CC0080E00E94CC00DF91CF91089563
S11300F0CF93DF9300D000D01F92CDB7DEB761E07D
S1130100CE0101960E944000CE0101960E944D004E
S11301100FE120E040E06FEFCE0101960E94440021
S1130120CE0101960E944D002FEF80E792E021500E
S113013080409040E1F700C0000020E04FEF60E015
S1130140CE0101960E944400CE0101960E944D000A
S11301502FEF80E792E0215080409040E1F700C00B
S113016000002FEF40E060E0CE0101960E944400C1
S1130170CE0101960E944D002FEF80E792E02150BE
S113018080409040E1F700C00000C2CF84B18C628F
S113019084B981E58CBD08958EBD0DB407FEFDCFF5
S10901A00895F894FFCF5E
S9030000FC
